:2000000009C021C020C020C01EC01DC01CC01BC01AC019C011241FBECFE9CDBF10E0A0E685
:20002000B0E0E2EEF0E002C005900D92A636B107D9F720E0A6E6B0E001C01D92A736B20714
:20004000E1F717D04CC0DCCF1F920F920FB60F9211248F93809166008F5F80936600863087
:2000600010F0109266008F910F900FBE0F901F90189583E886B98FE087BB81E388BB1FBC14
:2000800083E083BF82E089BF8FB780688FBF46E151E0B499FECF80E090E09C0164E0220F41
:2000A000331F6A95E1F72150310920F0FA013197F1F7F9CFE0916600F0E0E05AFF4F208119
:2000C00028BB01968031910541F7B49BFECF8BE090E00197F1F2FA013197F1F7FACFF894B5
:0800E000FFCF31343336373E07
:00000001FF
