:1000000009C021C021C021C01EC01DC01CC01BC012
:100010001AC019C011241FBECFE9CDBF10E0A0E661
:10002000B0E0ECE1F1E002C005900D92A636B10718
:10003000D9F720E0A6E6B0E001C01D92A736B207CE
:10004000E1F718D069C0DCCF18951F920F920FB658
:100050000F9211248F93809166008F5F80936600CA
:10006000863010F0109266008F910F900FBE0F90A7
:100070001F901895CF93DF93CDB7DD27C650CDBF26
:1000800086E0E0E6F0E0DE01119601900D928A959F
:10009000E1F78FE087BB81E388BB1FBC83E083BFB0
:1000A00082E089BF80E28BBF80E185BB8FB780682B
:1000B0008FBF80E888B981E085BD85B7877E85BF21
:1000C00085B7806285BF889585B78F7D85BFB499D8
:1000D000F7CF80E0982F9295907F915038F0EBE227
:1000E000F1E03197F1F700C00000F7CF9091660082
:1000F000E1E0F0E0EC0FFD1FE90FF11D908198BBEE
:100100008F5F803139F7B49BFECF87EB9BE001977F
:0C011000F1F700C00000D4CFF894FFCF3E
:06011C0031343336373E9A
:00000001FF
